:020000040800F2
:100000006807002089010008B9030008B10300084F
:10001000B503000839020008630A00080000000068
:10002000000000000000000000000000450500087E
:100030003D020008000000002D04000859060008D9
:10004000A3010008A3010008A3010008A301000800
:10005000A3010008A3010008A3010008A3010008F0
:10006000A3010008A3010008A3010008A3010008E0
:10007000A3010008A3010008A3010008A3010008D0
:10008000A3010008A3010008A3010008A3010008C0
:10009000A3010008A3010008A3010008A3010008B0
:1000A000A3010008A3010008A3010008A3010008A0
:1000B000A3010008A3010008A3010008A301000890
:1000C000A3010008A3010008A3010008A301000880
:1000D000A301000841080008A3010008A3010008CB
:1000E000A3010008A3010008A301000800F002F822
:1000F00000F03AF80AA090E8000C82448344AAF188
:100100000107DA4501D100F02FF8AFF2090EBAE885
:100110000F0013F0010F18BFFB1A43F0010318473B
:10012000480D0000680D0000103A24BF78C878C15F
:10013000FAD8520724BF30C830C144BF04680C60ED
:10014000704700000023002400250026103A28BF35
:1001500078C1FBD8520728BF30C148BF0B60704739
:100160001FB51FBD10B510BD00F033F81146FFF7E5
:10017000F7FF00F09DFC00F051F803B4FFF7F2FF29
:1001800003BC00F070FC00000948804709480047A4
:10019000FEE7FEE7FEE7FEE7FEE7FEE7FEE7FEE737
:1001A000FEE7FEE704480549054A064B7047000094
:1001B0005D060008ED0000086801002068070020C7
:1001C000680300206803002070477047704770473D
:1001D0007047754600F02CF8AE4605006946534658
:1001E00020F00700854618B020B5FFF7DBFFBDE81B
:1001F00020404FF000064FF000074FF000084FF08E
:10020000000B21F00701AC46ACE8C009ACE8C0091E
:10021000ACE8C009ACE8C0098D46704710B504468B
:10022000AFF300802046BDE81040FFF7A6BF0000F6
:10023000004870470401002000BFFEE770472DE929
:10024000F04102460025002600200023002400275C
:1002500091F803C00CF00F0591F803C00CF0100CDE
:10026000BCF1000F03D091F802C04CEA050591F8EB
:1002700000C0BCF1000F31D0146800202BE04FF01B
:10028000010C0CFA00F3B1F800C00CEA03069E4220
:1002900020D183004FF00F0C0CFA03F7BC4305FA92
:1002A00003FC4CEA040491F803C0BCF1280F06D10A
:1002B0004FF0010C0CFA00FCC2F814C00AE091F8EF
:1002C00003C0BCF1480F05D14FF0010C0CFA00FC43
:1002D000C2F810C0401C0828D1D31460B1F800C087
:1002E000BCF1FF0F34DD546800202EE000F1080C53
:1002F0004FF0010808FA0CF3B1F800C00CEA03064D
:100300009E4221D183004FF00F0C0CFA03F7BC433F
:1003100005FA03FC4CEA040491F803C0BCF1280F71
:1003200005D100F1080C08FA0CF8C2F8148091F815
:1003300003C0BCF1480F07D100F1080C4FF00108D1
:1003400008FA0CF8C2F81080401C0828CED354607C
:10035000BDE8F081416170470161704708B5012136
:10036000082000F075F84FF4C070ADF800001020C0
:100370008DF8030003208DF8020069460A48FFF754
:100380005EFF0121042000F063F80620ADF80000B4
:1003900010208DF8030003208DF802006946034801
:1003A000FFF74DFF08BD0000000C014000080140B0
:1003B00000BFFEE700BFFEE77047000070B50021F8
:1003C00000230F22C47804B3154C246804F4E064BD
:1003D000C4F5E064210AC1F10403CA40447804FA78
:1003E00003F184781440214309010E4C0678A1558D
:1003F000047804F01F050124AC4005786D11AD00B0
:1004000005F1E025C5F8004109E0047804F01F0576
:100410000124AC40044D0678761145F8264070BDA5
:100420000CED00E000E400E080E100E07047000037
:1004300029B1064AD2690243044BDA6104E0034A57
:10044000D2698243014BDA6170470000001002401C
:1004500029B1064A92690243044B9A6104E0034AB7
:1004600092698243014B9A6170470000001002407C
:1004700030B500210022002400232D4D6D6805F0C9
:100480000C0121B1042905D0082923D105E0294D0B
:10049000056022E0274D05601FE0254D6D6805F4DD
:1004A0007012234D6D6805F48034022505EB9242ED
:1004B0001CB9214D554305600BE01D4D6D6805F4D9
:1004C00000351DB11C4D5543056002E0194D5543E3
:1004D000056002E0174D056000BF00BF144D6D6858
:1004E00005F0F0010909154D6B5C0568DD404560BC
:1004F0000F4D6D6805F4E061090A104D6B5C4568AD
:10050000DD4085600A4D6D6805F46051C90A0B4DE8
:100510006B5C4568DD40C560054D6D6805F4404184
:10052000890B074D6B5CC568B5FBF3F5056130BD04
:100530000010024000127A0000093D001C0000205B
:100540002C000020704710B500F002F810BD00002C
:100550000CB50020019000903348006840F48030D2
:100560003149086000BF3048006800F40030009056
:100570000198401C0190009818B90198B0F5A06F3F
:10058000F1D12948006800F4003010B1012000903A
:1005900001E0002000900098012843D12348006822
:1005A00040F01000214908600846006820F0030070
:1005B00008600846006840F0020008601A48406879
:1005C000194948600846406848600846406840F459
:1005D000806048600846406820F47C104860084607
:1005E000406840F4E81048600846006840F08070B9
:1005F000086000BF0C48006800F000700028F9D0C7
:100600000948406820F003000749486008464068F0
:1006100040F00200486000BF0348406800F00C0052
:100620000828F9D10CBD0000001002400020024053
:10063000042808D14FF0E021096941F004014FF08E
:10064000E022116107E04FF0E021096921F0040187
:100650004FF0E022116170477047000010B5134859
:10066000006840F0010011490860084640681049E0
:1006700008400E494860084600680E4908400B498A
:1006800008600846006820F480200860084640683A
:1006900020F4FE0048604FF41F008860FFF753FF0E
:1006A0004FF000600449086010BD000000100240D7
:1006B0000000FFF8FFFFF6FE08ED00E021B1028820
:1006C00042F08002028004E002884FF67F731A40F5
:1006D0000280704721B1028842F00102028004E0EA
:1006E00002884FF6FE731A400280704770B50024EE
:1006F00000220023058C4FF6FE7635400584028CDF
:100700008388048B4FF68F752C40B51E2C400D88C6
:100710002C43751E2A400D892A434D882A43144DC7
:10072000A8420BD0134DA84208D0134DA84205D0C3
:10073000124DA84202D0124DA84213D14FF6F775C0
:100740002A404D892A434FF6FB752A408D882A435B
:100750004FF6FF652B404FF6FF552B408D892B43FD
:10076000CD892B4383800483CD888586028470BD28
:10077000002C014000340140004001400044014091
:10078000004801400A460021018B4FF6F7731940DB
:100790001143018370478186704700000022028860
:1007A0001D4B98420ED01D4B98420BD0B0F1804F9C
:1007B00008D01B4B984205D01A4B984202D01A4BD6
:1007C000984204D14FF68F731A404B881A43174B47
:1007D000984207D0164B984204D04FF6FF431A4078
:1007E000CB881A4302808B8883850B8803850A4B4C
:1007F00098420BD0094B984208D00E4B984205D036
:100800000D4B984202D00D4B984201D10B7A0386D2
:100810000123838270470000002C01400034014016
:100820000004004000080040000C004000100040A0
:1008300000140040004001400044014000480140D5
:1008400010B540F225511D4800F04AF810B31B487E
:1008500000F002F9C4B21A48008800F40040C8B998
:100860001748008800F4804060B10A2C03D00020B3
:100870001349088020E01248008840F400401049E5
:10088000088019E00D2C06D10D48008840F4804006
:100890000B49088010E00A480088C0F30D000949A0
:1008A0000C5407480088401C054908800846008809
:1008B000C72801DD0020088010BD0000003801407D
:1008C000380000203C00002021B1828942F400520F
:1008D000828104E082894DF6FF731A40828170475D
:1008E00070B50246002400230025002040F66A1659
:1008F000B14200D100BFC1F3421501F01F03012630
:1009000006FA03F3012D02D19689334006E0022D49
:1009100002D1168A334001E0968A33400C12012638
:1009200006FA04F41688344013B10CB1012000E03B
:10093000002070BDF0B503460024002600250020ED
:1009400040F66A17B94200D100BF1846C1F34214FD
:1009500001F01F06012707FA06F5012C01D10C3022
:1009600004E0022C01D1103000E014301AB1076805
:100970002F43076002E00768AF430760F0BD000047
:100980002DE9F04786B005460E460024A24600BF7A
:10099000A1460027B08900B100BF2F462C8A4CF633
:1009A000FF700440F08804432C82AC894EF6F310AB
:1009B0000440B08831890843718908430443AC81FD
:1009C000AC8A4FF6FF400440B0890443AC8201A8D2
:1009D000FFF74EFD1F48874202D1DDF810A001E06D
:1009E000DDF80CA0A88900F4004040B10AEBCA0071
:1009F00000EB0A1031684900B0FBF1F807E00AEBA0
:100A0000CA0000EB0A1031688900B0FBF1F86420DD
:100A1000B8FBF0F004012009642101FB1089A889CA
:100A200000F4004040B1322000EBC900B0FBF1F00F
:100A300000F00700044308E0322000EB09106421B5
:100A4000B0FBF1F000F00F0004432C8106B0BDE8CC
:100A5000F08700000038014001468888C0F3080094
:100A6000704700BFFEE7014600BF704710B56FF04A
:100A70000400FFF7DDFD0A4800680A49B0FBF1F009
:100A8000094908700846007800EB4001C1EBC0102E
:100A90004FF6FF7101EAC0000449088010BD000054
:100AA0000800002000127A003000002032000020F0
:100AB00086B04FF4E13000F087F9FFF7CFFDFFF784
:100AC000D5FFFFF74BFC002141F61F4000F0F0F886
:100AD000002141F61F4000F031F990E048480088BD
:100AE00000F4004000287ED00020464908604649B6
:100AF0000860002406E0002003A908550DF8040052
:100B0000601CC4B20A2CF6DB0024002505E03F4837
:100B1000005D03A90855601CC4B23C48005D2C2848
:100B200003D03A48005D0028F1D1601CC4B209E04E
:100B30002046611CCCB235490A5C2846691CCDB2FE
:100B40000DF800203148005D38B13048005D0D28B7
:100B500003D02E48005D0A28EAD103A800F08EF8E1
:100B60002849086000200DF80500684600F086F866
:100B70002549086000200DF805002248006800287B
:100B800008DA012000F048F81E48006840421D497C
:100B9000086002E0002000F03FF81A48006840F6C4
:100BA000B731884202DD481C1649086016480068C3
:100BB000002809DA012000F049F813480068404293
:100BC0001149086003E00EE0002000F03FF80E48F5
:100BD000006840F6B731884202DD481C0A490860C7
:100BE0000020074908800748008881B20848FFF7BD
:100BF000D2FD0548008881B20648FFF7CCFD6DE7BD
:100C00003800002000000020040000203C000020EC
:100C1000000800400004004010B50446012C07D134
:100C200080210948FFF798FB21020748FFF792FB54
:100C300044B94FF480710448FFF78EFB80210248CD
:100C4000FFF788FB10BD0000000C014010B5044602
:100C5000012C07D104210848FFF77EFB022106483A
:100C6000FFF778FB3CB902210348FFF775FB04212D
:100C70000148FFF76FFB10BD0008014010B50146A9
:100C80000022012308782D2801D1531E491C06E0BB
:100C90000878303802EB820400EB4402491C0878E3
:100CA000302802DB08783928F2DD02FB03F010BDA2
:100CB00030B589B005460C4601210420FFF7B8FB8A
:100CC00001210820FFF7C4FB4020ADF820000320DD
:100CD0008DF8220018208DF8230008A91548FFF789
:100CE000AEFAADF81850ADF814400020ADF81A0077
:100CF000ADF8160005A91048FFF750FD6020ADF8CB
:100D000004000020ADF80C000120ADF8060001A998
:100D10000948FFF7EBFC08210748FFF733FD0121E5
:100D20000548FFF7CBFC01210348FFF7D3FC09B0CE
:100D300030BD0000000C01400008004030B589B013
:100D400005460C4601210220FFF772FB0121042019
:100D5000FFF77EFB4020ADF8200003208DF8220035
:100D600018208DF8230008A91548FFF768FAADF898
:100D70001850ADF814400020ADF81A00ADF8160078
:100D800005A91048FFF70AFD6020ADF80400002017
:100D9000ADF80C000120ADF8060001A90948FFF7E5
:100DA000A5FC08210748FFF7EDFC01210548FFF7E6
:100DB00085FC01210348FFF78DFC09B030BD000020
:100DC000000801400004004010B586B0044601212F
:100DD00044F20400FFF73CFB4FF40070ADF8140040
:100DE00003208DF8160018208DF8170005A91C485F
:100DF000FFF725FA4FF48060ADF8140004208DF859
:100E0000170005A91648FFF71AFA25208DF80000EB
:100E100003208DF801008DF8020001208DF80300F9
:100E20006846FFF7CBFA01940020ADF80800ADF852
:100E30000A00ADF80C00ADF810000C20ADF80E0063
:100E400001A90848FFF79CFD012240F22551054801
:100E5000FFF770FD01210348FFF736FD06B010BD16
:100E60000008014000380140880E00080000002002
:100E70003C00000028010008C40E00083C000020CF
:100E80002C070000440100080000000000000000E2
:100E900000A24A0400000000000000000102030458
:100EA0000607080900000000010203040102030410
:100EB0000607080902040608000000000000000000
:040EC000000000002E
:04000005080000ED02
:00000001FF
